:100000000C942A000C94EB0E0C9447000C944700BF
:100010000C9447000C9447000C9447000C94470044
:100020000C9447000C9447000C9447000C94470034
:100030000C9447000C9447000C9447000C94470024
:100040000C9447000C9447000C9447000C94470014
:100050000C94470011241FBECFE5D8E0DEBFCDBF12
:1000600011E0A0E6B0E0ECEBFFE102C005900D92DC
:10007000AA36B107D9F711E0AAE6B1E001C01D9296
:10008000AB36B107E1F70E94520E0C94DC0F0C94D2
:100090000000EF92FF920F931F937B018C0120E0F1
:1000A00030E040E05FE40E94C50388238CF0C80183
:1000B000B70120E030E040E05FE40E94C1010E940F
:1000C00053049B01AC01205030404040504806C0D2
:1000D000C801B7010E9453049B01AC01B901CA01D8
:1000E0001F910F91FF90EF900895A0E0B0E0EBE733
:1000F000F0E00C94290FDC012B01FA019C91923065
:1001000008F439C1EB018881823008F433C194309E
:1001100069F4843009F02FC111969C91119789815F
:10012000981709F428C1A0E6B0E025C1843009F48D
:1001300021C18230A9F4923009F01DC19A01AD01AC
:1001400088E0EA010990AE01E90109929E0181501F
:10015000C1F7E201898111969C918923818308C1AD
:10016000923009F407C112962D903C901397EB0141
:100170008A819B811496AD90BD90CD90DC901797AD
:10018000EC80FD800E811F819101281B390BB90184
:1001900037FF04C066277727621B730B6032710537
:1001A0000CF061C0121613066CF537014801062EDB
:1001B00004C096948794779467940A94D2F721E0C8
:1001C00030E040E050E004C0220F331F441F551FB1
:1001D0006A95D2F721503040404050402E213F21B7
:1001E00040235123211531054105510521F021E01E
:1001F00030E040E050E079018A01E628F72808293C
:1002000019293CC0232BD1F1260E371E350146019A
:10021000062E04C096948794779467940A94D2F734
:1002200021E030E040E050E004C0220F331F441FC3
:10023000551F6A95D2F721503040404050402A2146
:100240003B214C215D21211531054105510521F04E
:1002500021E030E040E050E059016A01A628B728CB
:10026000C828D9280BC0821593052CF01C01AA249C
:10027000BB24650103C0EE24FF24870111969C91E5
:10028000D20111968C91981709F445C0992339F041
:10029000A80197012A193B094C095D0906C0A6016E
:1002A00095012E193F09400B510B57FD08C01182D3
:1002B0003382228224833583468357831DC081E0A5
:1002C00081833382228288279927DC01821B930B4A
:1002D000A40BB50B84839583A683B7830DC0220F2F
:1002E000331F441F551F24833583468357838281E0
:1002F000938101979383828324813581468157813D
:10030000DA01C9010197A109B1098F5F9F4FAF4F72
:10031000BF4328F30BC0918333822282EA0CFB1C7B
:100320000C1D1D1DE482F5820683178383E0808304
:10033000248135814681578157FF1AC0C901AA27F8
:1003400097FDA095BA2F81709070A070B0705695EF
:10035000479537952795822B932BA42BB52B848318
:100360009583A683B7838281938101969383828349
:10037000DF0101C0D201CD01CDB7DEB7E2E10C94BF
:10038000450FA0E2B0E0E7ECF1E00C94350F698393
:100390007A838B839C832D833E834F835887E9E048
:1003A000EE2EF12CEC0EFD1ECE010196B7010E943F
:1003B000CB058E010F5E1F4FCE010596B8010E943E
:1003C000CB058A8991E089278A8BC701B801AE01E4
:1003D000475E5F4F0E9475000E94F604A096E6E01B
:1003E0000C94510FA0E2B0E0E8EFF1E00C94350F6F
:1003F00069837A838B839C832D833E834F835887C5
:10040000F9E0EF2EF12CEC0EFD1ECE010196B701A6
:100410000E94CB058E010F5E1F4FCE010596B801DD
:100420000E94CB05C701B801AE01475E5F4F0E9435
:1004300075000E94F604A096E6E00C94510FA0E22D
:10044000B0E0E5E2F2E00C94290F69837A838B83B4
:100450009C832D833E834F835887CE010196BE0136
:10046000675F7F4F0E94CB05CE010596BE016F5E90
:100470007F4F0E94CB059985923088F08989823020
:10048000C8F0943019F4823051F404C0843029F457
:10049000923081F480E690E0C6C0923049F420E0CA
:1004A0009A858A89981321E02A87CE010996BBC0D4
:1004B000823049F420E09A858A89981321E02A8BBA
:1004C000CE014196B0C02D843E844F8458886D88FB
:1004D0007E888F88988CEE24FF248701AA24BB2471
:1004E000650140E050E060E070E0E0E0F0E0C10174
:1004F00081709070892BE9F0E60CF71C081D191D1E
:100500009A01AB012A0D3B1D4C1D5D1D80E090E062
:10051000A0E0B0E0E614F7040805190520F481E036
:1005200090E0A0E0B0E0BA01A901480F591F6A1F8E
:100530007B1FAA0CBB1CCC1CDD1C97FE08C081E0F5
:1005400090E0A0E0B0E0A82AB92ACA2ADB2A3196B6
:10055000E032F10549F0660C771C881C991C569412
:10056000479437942794C3CFFA85EA892B893C892D
:100570008B859C85280F391F2E5F3F4F17C0CA01FE
:1005800081709070892B61F016950795F794E79428
:1005900080E090E0A0E0B0E8E82AF92A0A2B1B2BC3
:1005A00076956795579547952F5F3F4F77FDE7CF36
:1005B0000CC0440F551F661F771F17FD4160EE0CDE
:1005C000FF1C001F111F21503040403090E05907A0
:1005D00090E0690790E4790760F32B8F3C8FDB0193
:1005E000CA018F779070A070B07080349105A1051A
:1005F000B10561F447FD0AC0E114F10401051105DC
:1006000029F0405C5F4F6F4F7F4F40781A8EFE1786
:1006100011F081E08A8F4D8F5E8F6F8F78A383E01A
:10062000898FCE0149960E94F604A096E2E10C94CF
:10063000450FA8E1B0E0EFE1F3E00C94310F6983DE
:100640007A838B839C832D833E834F835887B9E0C5
:10065000EB2EF12CEC0EFD1ECE010196B7010E948F
:10066000CB058E010F5E1F4FCE010596B8010E948B
:10067000CB052985223008F47EC03989323010F448
:10068000B8017CC08A859A8989278A87243011F02D
:10069000223031F4231709F06EC060E670E06EC0BE
:1006A000343039F41D861E861F86188A1C861B86E8
:1006B00004C0323021F484E08987B7015FC02B8504
:1006C0003C858B899C89281B390B3C872B87ED84C3
:1006D000FE840F851889AD88BE88CF88D88CEA142F
:1006E000FB040C051D0540F4EE0CFF1C001F111F40
:1006F000215030403C872B8720E030E040E050E044
:1007000080E090E0A0E0B0E460E070E0EA14FB0478
:100710000C051D0540F0282B392B4A2B5B2BEA18C2
:10072000FB080C091D09B695A79597958795EE0CC2
:10073000FF1C001F111F6F5F7F4F6F31710531F775
:10074000DA01C9018F779070A070B0708034910584
:10075000A105B10561F427FD0AC0E114F10401050A
:10076000110529F0205C3F4F4F4F5F4F20782D87B8
:100770003E874F87588BBE01675F7F4FCB010E943A
:10078000F6046896EAE00C944D0FA8E1B0E0EBECBB
:10079000F3E00C94350F69837A838B839C832D83DC
:1007A0003E834F83588789E0E82EF12CEC0EFD1E26
:1007B000CE010196B7010E94CB058E010F5E1F4F3F
:1007C000CE010596B8010E94CB058985823040F0A4
:1007D0008989823028F0C701B8010E94430601C010
:1007E0008FEF6896E6E00C94510FA8E0B0E0EBEFD5
:1007F000F3E00C94320F9B01AC0183E08983DA01B2
:10080000C9018827B7FD83959927AA27BB27B82E4A
:10081000211531054105510519F482E089833AC05B
:100820008823A9F0203080E0380780E0480780E87E
:10083000580729F460E070E080E09FEC30C0EE24BF
:10084000FF248701E21AF30A040B150B02C0790199
:100850008A018EE1C82ED12CDC82CB82ED82FE8211
:100860000F831887C801B7010E94A70401971816C3
:10087000190684F4082E04C0EE0CFF1C001F111F83
:100880000A94D2F7ED82FE820F831887C81AD90A1C
:10089000DC82CB82BA82CE0101960E94F6042896B1
:1008A000E9E00C944E0FACE0B0E0E9E5F4E00C9424
:1008B000390F69837A838B839C83CE010196BE01B5
:1008C0006B5F7F4F0E94CB058D81823061F182305A
:1008D00050F1843021F48E81882351F12EC02F8174
:1008E000388537FD20C06E812F3131051CF066231D
:1008F000F9F023C08EE190E0821B930B29853A85A5
:100900004B855C8504C056954795379527958A9504
:10091000D2F76623B1F050954095309521953F4F21
:100920004F4F5F4F0EC020E030E040E050E009C084
:100930002FEF3FEF4FEF5FE704C020E030E040E0F3
:1009400050E8B901CA012C96E2E00C94550FEF92E1
:10095000FF920F931F937B018C0180E0E81680E0EB
:10096000F80681E0080780E0180788F48FEFE816A2
:10097000F1040105110531F028F088E090E0A0E0D5
:10098000B0E017C080E090E0A0E0B0E012C080E0EE
:10099000E81680E0F80680E0080781E0180728F0F4
:1009A00088E190E0A0E0B0E004C080E190E0A0E049
:1009B000B0E020E230E040E050E0281B390B4A0B69
:1009C0005B0B04C016950795F794E7948A95D2F7C8
:1009D000F701E859FF4F8081281B3109410951096E
:1009E000C9011F910F91FF90EF900895DF92EF9250
:1009F000FF920F931F93FC01E480F580068117811D
:100A0000D1808081823048F480E090E0A0E1B0E0C5
:100A1000E82AF92A0A2B1B2BA5C0843009F49FC0B1
:100A2000823021F4EE24FF24870105C0E114F10493
:100A30000105110519F4E0E0F0E096C062817381D0
:100A40009FEF623879070CF05BC022E83FEF261B6E
:100A5000370B2A3131052CF020E030E040E050E047
:100A60002AC0B801A701022E04C076956795579554
:100A700047950A94D2F781E090E0A0E0B0E004C08E
:100A8000880F991FAA1FBB1F2A95D2F70197A109AA
:100A9000B1098E219F21A023B1230097A105B105A3
:100AA00021F081E090E0A0E0B0E09A01AB01282BBA
:100AB000392B4A2B5B2BDA01C9018F779070A0701C
:100AC000B07080349105A105B10539F427FF09C044
:100AD000205C3F4F4F4F5F4F04C0215C3F4F4F4F53
:100AE0005F4FE0E0F0E02030A0E03A07A0E04A07E6
:100AF000A0E45A0710F0E1E0F0E079018A0127C094
:100B00006038710564F5FB01E158FF4FD801C7015A
:100B10008F779070A070B07080349105A105B105F9
:100B200039F4E7FE0DC080E490E0A0E0B0E004C03E
:100B30008FE390E0A0E0B0E0E80EF91E0A1F1B1F53
:100B400017FF05C016950795F794E794319687E04F
:100B500016950795F794E7948A95D1F705C0EE248A
:100B6000FF248701EFEFF0E06E2F6795662767950A
:100B7000902F9F77D794DD24D7948E2F8695492F79
:100B8000462B582F5D29B701CA011F910F91FF9085
:100B9000EF90DF900895FC01DB01408151812281BB
:100BA000622F6F7770E0221F2227221F9381892FE7
:100BB000880F822B282F30E0991F9927991F1196B3
:100BC0009C93119721153105A9F541155105610532
:100BD000710511F482E037C082E89FEF13969C9371
:100BE0008E9312979A01AB0167E0220F331F441FC7
:100BF000551F6A95D1F783E08C930DC0220F331FE8
:100C0000441F551F12968D919C911397019713962F
:100C10009C938E931297203080E0380780E048073D
:100C200080E4580758F314962D933D934D935C93AD
:100C3000179708952F3F310579F441155105610546
:100C4000710519F484E08C93089564FF03C081E07A
:100C50008C9312C01C9210C02F57304013963C93B7
:100C60002E93129783E08C9387E0440F551F661FE5
:100C7000771F8A95D1F7706414964D935D936D93A9
:100C80007C93179708951F93DC01FB019C91923090
:100C900008F447C08081823008F443C0943051F496
:100CA00011961C91843099F58181682F70E0611B49
:100CB00071093FC0843021F0923031F48230B9F1B3
:100CC0008181882389F12DC011961C911197823062
:100CD000F1F081811817D9F412962D913C91139758
:100CE000828193818217930794F028173907BCF00B
:100CF00014968D919D910D90BC91A02D24813581EC
:100D000046815781281739074A075B0718F41123D2
:100D100041F00AC082179307A407B50740F41123D6
:100D200019F061E070E005C06FEF7FEF02C060E096
:100D300070E0CB011F910895DF93CF93CDB7DEB75D
:100D4000A3E5B0E0E3E5F0E080818F7B8C93A3E541
:100D5000B0E0E3E5F0E08081877F8C93A3E5B0E02D
:100D6000E3E5F0E080818F7E8C93A3E5B0E0E3E5DE
:100D7000F0E080818F7D8C93CF91DF910895DF9398
:100D8000CF93CDB7DEB7A3E5B0E0E3E5F0E0808137
:100D9000887F8C93A3E5B0E0E3E5F0E08081856097
:100DA0008C93CF91DF910895DF93CF93CDB7DEB7CA
:100DB00060970FB6F894DEBF0FBECDBF888B1F863D
:100DC0001E861D861C861B861A86198680E090E08A
:100DD000A0E0B0E08D839E83AF83B88780E090E091
:100DE000A0E0B0E089839A83AB83BC838DEB97E36B
:100DF000A6E8BAE389839A83AB83BC8369817A814D
:100E00008B819C8120E030E040E853E40E941F0287
:100E1000DC01CB018D839E83AF83B8878889882FBF
:100E200090E0AA2797FDA095BA2FBC01CD010E94A2
:100E3000F503DC01CB01BC01CD0129813A814B8155
:100E40005C810E941903DC01CB01BC01CD010E9431
:100E50004900DC01CB019A8789878889882F90E037
:100E6000AA2797FDA095BA2FBC01CD010E94F503DA
:100E7000DC01CB01BC01CD012D813E814F81588524
:100E80000E941903DC01CB01BC01CD010E94600F5F
:100E9000DC01CB01BC01CD010E944900DC01CB018A
:100EA0009E878D8789859A852D853E85B9010E940B
:100EB000150F81958F87E2E5F0E08F85808315C05F
:100EC000E8E5F0E08081882F90E0817090700097D5
:100ED000B9F3A8E5B0E0E8E5F0E0808181608C93AB
:100EE0008B859C8501969C878B872B853C858D8582
:100EF0009E852817390720F360960FB6F894DEBF59
:100F00000FBECDBFCF91DF910895DF93CF93CDB7C3
:100F1000DEB7A3E5B0E0E3E5F0E080818E7F8C935F
:100F2000A3E5B0E0E3E5F0E080818D7F8C93A3E55D
:100F3000B0E0E3E5F0E080818B7F8C93CF91DF918F
:100F40000895DF93CF9300D000D00F92CDB7DEB7D6
:100F50008A836B8319828B81282F30E03D832C8319
:100F60008C819D818130910509F470C02C813D8177
:100F70002230310509F4CEC08C819D81009709F0A3
:100F8000EDC08A818130B1F4A5E5B0E0E5E5F0E09F
:100F900080818E7F8C93A5E5B0E0E5E5F0E080816F
:100FA0008D7F8C93ABE5B0E0EBE5F0E08081806471
:100FB0008C93D6C08A818230B1F4A5E5B0E0E5E536
:100FC000F0E0808181608C93A5E5B0E0E5E5F0E09C
:100FD00080818D7F8C93ABE5B0E0EBE5F0E0808124
:100FE00080648C93BDC08A818330B1F4A5E5B0E004
:100FF000E5E5F0E080818E7F8C93A5E5B0E0E5E546
:10100000F0E0808182608C93ABE5B0E0EBE5F0E04E
:10101000808180648C93A4C08A81843009F0A0C050
:10102000A5E5B0E0E5E5F0E0808181608C93A5E581
:10103000B0E0E5E5F0E0808182608C93ABE5B0E064
:10104000EBE5F0E0808180648C938AC08A818130F6
:10105000B1F4A5E5B0E0E5E5F0E080818B7F8C930D
:10106000A5E5B0E0E5E5F0E08081877F8C93ABE516
:10107000B0E0EBE5F0E0808180688C9371C08A81FC
:101080008230B1F4A5E5B0E0E5E5F0E08081846070
:101090008C93A5E5B0E0E5E5F0E08081877F8C9357
:1010A000ABE5B0E0EBE5F0E0808180688C9358C060
:1010B0008A818330B1F4A5E5B0E0E5E5F0E0808118
:1010C0008B7F8C93A5E5B0E0E5E5F0E0808188605A
:1010D0008C93ABE5B0E0EBE5F0E0808180688C9329
:1010E0003FC08A818430E1F5A5E5B0E0E5E5F0E0B8
:1010F000808184608C93A5E5B0E0E5E5F0E0808137
:1011000088608C93ABE5B0E0EBE5F0E0808180682F
:101110008C9326C08A81843079F4A4E5B0E0E4E5BC
:10112000F0E0808180648C93ABE5B0E0EBE5F0E02B
:10113000808180628C9314C08A81833089F4A4E515
:10114000B0E0E4E5F0E080818F7B8C93ABE5B0E02C
:10115000EBE5F0E0808180628C9302C081E08983BE
:1011600089810F900F900F900F900F90CF91DF918A
:101170000895DF93CF9300D000D0CDB7DEB78A8338
:1011800019828A81282F30E03C832B838B819C81BC
:101190008130910589F02B813C8122303105A1F00D
:1011A0008B819C810097C1F4ABE5B0E0EBE5F0E00A
:1011B000808180648C9312C0ABE5B0E0EBE5F0E099
:1011C000808180688C930AC0ABE5B0E0EBE5F0E08D
:1011D000808180628C9302C081E0898389810F9035
:1011E0000F900F900F90CF91DF910895DF93CF93E1
:1011F00000D000D0CDB7DEB78A8319828A81282F2C
:1012000030E03C832B838B819C818130910589F078
:101210002B813C8122303105A1F08B819C8100978C
:10122000C1F4ABE5B0E0EBE5F0E080818F7B8C931F
:1012300012C0ABE5B0E0EBE5F0E080818F778C93F6
:101240000AC0ABE5B0E0EBE5F0E080818F7D8C93E8
:1012500002C081E0898389810F900F900F900F90D9
:10126000CF91DF910895DF93CF93CDB7DEB7AFE590
:10127000B0E0EFE5F0E0808180688C93CF91DF9162
:101280000895DF93CF93CDB7DEB7AFE5B0E0EFE5DC
:10129000F0E080818F778C93CF91DF910895DF9379
:1012A000CF9300D000D0CDB7DEB789836A83898120
:1012B000282F30E03C832B838B819C8181309105EA
:1012C00021F12B813C81223031052CF48B819C81D2
:1012D000009761F046C02B813C812230310521F11D
:1012E0008B819C818330910571F13BC08A81813073
:1012F00029F4EAE3F0E08FEF808333C08A8188230A
:1013000081F5EAE3F0E010822CC08A81813029F473
:10131000E7E3F0E08FEF808324C08A81882309F51A
:10132000E7E3F0E010821DC08A81813029F4E4E314
:10133000F0E08FEF808315C08A81882391F4E4E385
:10134000F0E010820EC08A81813029F4E1E3F0E000
:101350008FEF808306C08A81882319F4E1E3F0E0EF
:1013600010820F900F900F900F90CF91DF91089502
:10137000DF93CF9300D000D0CDB7DEB789836A83E7
:101380008981282F30E03C832B838B819C818130A5
:10139000910549F12B813C81223031052CF48B8160
:1013A0009C81009761F05AC02B813C81223031052D
:1013B00071F18B819C8183309105E9F14FC08A8165
:1013C000813029F4EBE3F0E08FEF808347C08A811E
:1013D000882321F4EBE3F0E0108240C0EBE3F0E07F
:1013E0008A8180833BC08A81813029F4E8E3F0E080
:1013F0008FEF808333C08A81882321F4E8E3F0E013
:1014000010822CC0E8E3F0E08A81808327C08A81C3
:10141000813029F4E5E3F0E08FEF80831FC08A81FB
:10142000882321F4E5E3F0E0108218C0E5E3F0E062
:101430008A81808313C08A81813029F4E2E3F0E05D
:101440008FEF80830BC08A81882321F4E2E3F0E0F0
:10145000108204C0E2E3F0E08A8180830F900F9055
:101460000F900F90CF91DF910895DF93CF9300D02D
:1014700000D00F92CDB7DEB789836A834B83898111
:10148000282F30E03D832C838C819D818130910514
:1014900009F44EC02C813D81223031052CF48C8121
:1014A0009D81009771F0E6C02C813D81223031058D
:1014B00009F475C08C819D818330910509F4A6C023
:1014C000D9C08B818130B9F48A818830A0F4AAE335
:1014D000B0E0EAE3F0E08081482F8A81282F30E0F5
:1014E00081E090E0022E02C0880F991F0A94E2F773
:1014F000842B8C93BFC08B81882309F0BBC08A8169
:10150000883008F0B7C0AAE3B0E0EAE3F0E08081F9
:10151000482F8A81282F30E081E090E0022E02C01F
:10152000880F991F0A94E2F7809584238C93A2C0B8
:101530008B818130B9F48A818830A0F4AAE3B0E0CD
:10154000EAE3F0E08081482F8A81282F30E081E0B3
:1015500090E0022E02C0880F991F0A94E2F7842BB4
:101560008C9388C08B81882309F084C08A8188305D
:1015700008F080C0A7E3B0E0E7E3F0E08081482F07
:101580008A81282F30E081E090E0022E02C0880F8F
:10159000991F0A94E2F7809584238C936BC08B810A
:1015A0008130B9F48A818830A0F4A4E3B0E0E4E3A8
:1015B000F0E08081482F8A81282F30E081E090E0A0
:1015C000022E02C0880F991F0A94E2F7842B8C9395
:1015D00051C08B81882309F04DC08A81883008F082
:1015E00049C0A4E3B0E0E4E3F0E08081482F8A81C1
:1015F000282F30E081E090E0022E02C0880F991F72
:101600000A94E2F7809584238C9334C08B818130D7
:10161000B9F48A818830A0F4A1E3B0E0E1E3F0E01E
:101620008081482F8A81282F30E081E090E0022ECF
:1016300002C0880F991F0A94E2F7842B8C931AC07A
:101640008B818823B9F48A818830A0F4A1E3B0E0CB
:10165000E1E3F0E08081482F8A81282F30E081E0AB
:1016600090E0022E02C0880F991F0A94E2F780953D
:1016700084238C930F900F900F900F900F90CF9129
:10168000DF910895DF93CF9300D000D00F92CDB7B4
:10169000DEB789836A834B838981282F30E03D83BD
:1016A0002C838C819D818130910509F44EC02C8161
:1016B0003D81223031052CF48C819D81009771F0A1
:1016C000E6C02C813D812230310509F475C08C8142
:1016D0009D818330910509F4A6C0D9C08B818130EA
:1016E000B9F48A818830A0F4ABE3B0E0EBE3F0E03A
:1016F0008081482F8A81282F30E081E090E0022EFF
:1017000002C0880F991F0A94E2F7842B8C93BFC004
:101710008B81882309F0BBC08A81883008F0B7C06C
:10172000ABE3B0E0EBE3F0E08081482F8A81282F23
:1017300030E081E090E0022E02C0880F991F0A94E9
:10174000E2F7809584238C93A2C08B818130B9F419
:101750008A818830A0F4A8E3B0E0E8E3F0E080817B
:10176000482F8A81282F30E081E090E0022E02C0CD
:10177000880F991F0A94E2F7842B8C9388C08B8181
:10178000882309F084C08A81883008F080C0A8E3EB
:10179000B0E0E8E3F0E08081482F8A81282F30E034
:1017A00081E090E0022E02C0880F991F0A94E2F7B0
:1017B000809584238C936BC08B818130B9F48A81AE
:1017C0008830A0F4A5E3B0E0E5E3F0E08081482FA5
:1017D0008A81282F30E081E090E0022E02C0880F3D
:1017E000991F0A94E2F7842B8C9351C08B81882334
:1017F00009F04DC08A81883008F049C0A5E3B0E007
:10180000E5E3F0E08081482F8A81282F30E081E0F5
:1018100090E0022E02C0880F991F0A94E2F780958B
:1018200084238C9334C08B818130B9F48A818830D1
:10183000A0F4A2E3B0E0E2E3F0E08081482F8A81E7
:10184000282F30E081E090E0022E02C0880F991F1F
:101850000A94E2F7842B8C931AC08B818823B9F405
:101860008A818830A0F4A2E3B0E0E2E3F0E0808176
:10187000482F8A81282F30E081E090E0022E02C0BC
:10188000880F991F0A94E2F7809584238C930F9018
:101890000F900F900F900F90CF91DF910895DF93ED
:1018A000CF9300D000D0CDB7DEB789836A8389811A
:1018B000282F30E03C832B838B819C8181309105E4
:1018C00071F12B813C81223031052CF48B819C817C
:1018D000009769F069C02B813C8122303105B9F154
:1018E0008B819C818330910509F448C05DC08A8159
:1018F000883008F059C0ABE3B0E0EBE3F0E0808162
:10190000482F8A81282F30E081E090E0022E02C02B
:10191000880F991F0A94E2F784278C9345C08A8127
:10192000883008F041C0A8E3B0E0E8E3F0E080814F
:10193000482F8A81282F30E081E090E0022E02C0FB
:10194000880F991F0A94E2F784278C932DC08A810F
:10195000883050F5A5E3B0E0E5E3F0E08081482F62
:101960008A81282F30E081E090E0022E02C0880FAB
:10197000991F0A94E2F784278C9316C08A818830D5
:1019800098F4A2E3B0E0E2E3F0E08081482F8A819E
:10199000282F30E081E090E0022E02C0880F991FCE
:1019A0000A94E2F784278C930F900F900F900F907A
:1019B000CF91DF910895DF93CF9300D000D000D076
:1019C000CDB7DEB789836A835C834B838981282FF7
:1019D00030E03E832D834D815E814130510579F1A8
:1019E0008D819E818230910534F42D813E812115B7
:1019F000310569F069C04D815E8142305105B9F110
:101A00008D819E818330910509F448C05DC08A8133
:101A1000883008F059C0E9E3F0E08081282F30E0F9
:101A20008A81882F90E0A90102C0559547958A9533
:101A3000E2F7CA018170EB81FC81808345C08A8115
:101A4000883008F041C0E6E3F0E08081282F30E0E4
:101A50008A81882F90E0A90102C0559547958A9503
:101A6000E2F7CA018170EB81FC8180832DC08A81FD
:101A7000883050F5E3E3F0E08081282F30E08A8160
:101A8000882F90E0A90102C0559547958A95E2F705
:101A9000CA018170EB81FC81808316C08A81883005
:101AA00098F4E0E3F0E08081282F30E08A81882FED
:101AB00090E0A90102C0559547958A95E2F7CA01C1
:101AC0008170EB81FC81808326960FB6F894DEBF8F
:101AD0000FBECDBFCF91DF910895DF93CF930F92CB
:101AE000CDB7DEB71982198205C00E94130E898115
:101AF0008F5F898389818A30C0F380E00F90CF9116
:101B0000DF910895DF93CF93CDB7DEB780E060E03B
:101B10000E94E10D81E062E00E94E10D0E94BF069B
:101B200085E00E94D4060E94850780E060E00E9464
:101B3000F20D81E062E00E94F20D80E0CF91DF9132
:101B40000895DF93CF93CDB7DEB780E062E00E94C7
:101B5000E10D81E060E00E94E10D0E94BF0685E09A
:101B60000E94D4060E94850780E062E00E94F20D88
:101B700081E060E00E94F20D80E0CF91DF91089556
:101B8000DF93CF93CDB7DEB781E062E00E94E10D35
:101B90000E946D0D0E94A10D80E0CF91DF9108950C
:101BA000DF93CF9300D0CDB7DEB789836A83898175
:101BB0006A8141E00E94350A0F900F90CF91DF912A
:101BC0000895DF93CF9300D0CDB7DEB789836A83C2
:101BD00089816A8141E00E94420B0F900F90CF9162
:101BE000DF910895DF93CF9300D0CDB7DEB789831F
:101BF0006A8389816A8140E00E94420B0F900F90B6
:101C0000CF91DF910895DF93CF9300D0CDB7DEB7AA
:101C100089836A8389816A810E944F0C0F900F909B
:101C2000CF91DF910895DF93CF93CDB7DEB70E94B8
:101C3000BF0680E061E00E944F0C81E061E00E94FD
:101C40004F0C81E00E94D4060E948507CF91DF915E
:101C50000895DF93CF9300D0CDB7DEB789836A8331
:101C600089816A8140E00E94350A0F900F90CF91E0
:101C7000DF910895DF93CF9300D000D0CDB7DEB7CA
:101C800089836A835C834B832B813C8189816A8150
:101C9000A9010E94DB0C0F900F900F900F90CF9135
:101CA000DF910895DF93CF93CDB7DEB70E949C06F6
:101CB00080E060E00E94D00D80E061E00E94D00DE5
:101CC00080E062E00E94D00D81E061E00E944F0957
:101CD00083E062E00E94290E83E062E041E00E941E
:101CE000420B80E00E94B90883E060E00E94A107F7
:101CF0000E94330981E0809368010E94820D82E096
:101D0000809368010E946D0D83E0809368010E94BA
:101D1000A10D84E0809368010E946D0DEBCFDF93ED
:101D2000CF93CDB7DEB70E94820D0E946D0D0E9449
:101D3000A10D0E946D0DCF91DF910895DF93CF9398
:101D400000D0CDB7DEB780916801282F30E03A830C
:101D5000298389819A818230910539F129813A81DB
:101D60002330310534F489819A818130910561F005
:101D70002DC029813A8123303105E1F089819A8192
:101D800084309105E9F022C081E062E00E94E10D1B
:101D90000E946D0D80E060E00E94F20D81E062E043
:101DA0000E94F20D0E94A10D11C00E946D0D0E94B3
:101DB000A10D0CC00E94A10D84E08093680106C0B3
:101DC0000E946D0D0E94A10D0E948F0E0F900F902A
:101DD000CF91DF9108951F920F920FB60F921124A9
:101DE0002F933F934F935F936F937F938F939F9323
:101DF000AF93BF93EF93FF93DF93CF93CDB7DEB74E
:101E00000E949E0ECF91DF91FF91EF91BF91AF9114
:101E10009F918F917F916F915F914F913F912F9102
:101E20000F900FBE0F901F901895AA1BBB1B51E17E
:101E300007C0AA1FBB1FA617B70710F0A61BB70B3A
:101E4000881F991F5A95A9F780959095BC01CD01DF
:101E500008952F923F924F925F926F927F928F924E
:101E60009F92AF92BF92CF92DF92EF92FF920F9329
:101E70001F93CF93DF93CDB7DEB7CA1BDB0B0FB633
:101E8000F894DEBF0FBECDBF09942A8839884888F0
:101E90005F846E847D848C849B84AA84B984C88486
:101EA000DF80EE80FD800C811B81AA81B981CE0F7D
:101EB000D11D0FB6F894DEBF0FBECDBFED01089562
:101EC0003BD080F09F3740F491110EF44DC060E09C
:101ED00070E080E89FE3089526F01B16611D711DD8
:101EE000811D01C01BC0882371F4772321F0985015
:101EF000872B762F07C0662311F499270DC09051C8
:101F0000862B70E060E02AF09A95660F771F881F95
:101F1000DAF7880F9695879597F908959F3F31F0E6
:101F2000915020F4879577956795B795880F911D07
:101F30009695879597F9089525D0A0F0BEE7B91733
:101F400088F4BB279F3860F41616B11D672F782FD1
:101F50008827985FF7CF869577956795B11D9395FC
:101F60009639C8F30895E894BB2766277727CB01F5
:101F700097F9089557FD9058440F551F59F05F3F4A
:101F800071F04795880F97FB991F61F09F3F79F09B
:101F900087950895121613061406551FF2CF46951D
:101FA000F1DF08C0161617061806991FF1CF86959F
:0C1FB0007105610508940895F894FFCFB6
:101FBC000000000000000000000102020303030304
:101FCC0004040404040404040505050505050505BD
:101FDC00050505050505050506060606060606069D
:101FEC000606060606060606060606060606060685
:101FFC00060606060606060607070707070707076D
:10200C000707070707070707070707070707070754
:10201C000707070707070707070707070707070744
:10202C000707070707070707070707070707070734
:10203C00070707070707070708080808080808081C
:10204C000808080808080808080808080808080804
:10205C0008080808080808080808080808080808F4
:10206C0008080808080808080808080808080808E4
:10207C0008080808080808080808080808080808D4
:10208C0008080808080808080808080808080808C4
:10209C0008080808080808080808080808080808B4
:1020AC0008080808080808080808080808080808A4
:0A20BC0008080808080808080100D9
:00000001FF
